:020000040800F2
:10000000B1AA010000000000000000000000000094
:1000100000000000000000000000000000000000E0
:1000200000000000000000000000000000000000D0
:1000300000000000000000000000000000000000C0
:1000400000000000000000000000000000000000B0
:1000500000000000000000000000000000000000A0
:100060000000000000000000000000000000000090
:100070000000000000000000000000000000000080
:100080000000000000000000000000000000000070
:100090000000000000000000000000000000000060
:1000A0000000000000000000000000000000000050
:1000B000000000000000000000000000BE0B00086F
:1000C0000000000000000000000000000000000030
:1000D000000000000000000000000000440B0008C9
:1000E0000000000000000000000000000000000010
:1000F0000000000000000000000000000000000000
:1001000000000000000000000000000000000000EF
:1001100000000000000000000000000000000000DF
:1001200000000000000000000000000000000000CF
:1001300000000000000000000000000000000000BF
:1001400000000000000000000000000000000000AF
:100150000000000000000000000000007370043088
:10016000170500001305C5FF8545F605637BB5003F
:1001700089816378B500170500001305C5002E9529
:1001800002859302002073A0027D970200009382F3
:1001900062E773907230971200009382E2CA739004
:1001A000C27E73E0C07E971200009382A2C173905A
:1001B0005230970100189381E16A178100181301EA
:1001C00061E4171500001305E5FD970500189385F8
:1001D00065E317060018130666E963FAC500832273
:1001E000050023A0550011059105E3EAC5FE17059A
:1001F00000181305A5E797050018938525F6637782
:10020000B500232005001105E36DB5FE73F0023241
:10021000171500001305C5CE97100000E780E0C950
:1002200097100000E78040D197100000E780A08879
:100230000145814597000000E780C00E17130000BC
:100240006700A3C801A073E00232828073F002321B
:0402500082800000A8
:10028000AE050008BE050008C6050008D005000838
:10029000D6050008DA050008DE0500080A50726F6E
:1002A0006772616D20686173206578697465642088
:1002B0007769746820636F64653A000030780000E5
:1002C0006E6D690A00000000747261700A0000001F
:1002D000EC1FED1FEE1FEF1FF01FF11FF21FF31FAA
:1002E000F41FF51FF61FF71FF81FF91FFA1FFB1F5A
:1002F000FC1FFD1FFE1FFF1FEC2FED2FEE2FEF2F1A
:10030000F02FF12FF22FF32FF42FF52FF62FF72FD9
:10031000F82FF92FFA2FFB2FFC2FFD2FFE2FFF2F89
:1003200041111305306006C697000000E7802013D6
:100330003715014085460D46C145130505C0970098
:100340000000E780400697000000E780A0019710BA
:100350000000E780C09097100000E780009E01A099
:10036000F367043082801703000067000361011106
:1003700006CE22CC32C42A842EC697000000E78025
:10038000A05EB245228597000000E78060612246AA
:1003900022856244F240B2850561170300006700C0
:1003A000A36593F7050193F8F50099C3B3E8C80076
:1003B0008147054EBD4E130F8002930F80042143E9
:1003C0003316FE00758E1DC2139727008322050089
:1003D0003398EE001348F8FF337858003397E8005D
:1003E000336707016399E50550C918C18507E3998B
:1003F00067FC054EBD4E130F8002930F80044143EE
:100400003316FE00758E05C6139727000117832249
:1004100045003398EE001348F8FF337858003397BF
:10042000E80033670701639CE50150C958C185079F
:10043000E39867FC8280E39AF5FB10C97DB7E397E8
:10044000F5FF10C9E5B719C20CC982804CC982807A
:1004500048456D8D3335A0008280B7170240135791
:1004600065003E9714438547B397A700D58F1CC3FB
:100470008280B7170240135765003E9714438547A3
:10048000B397A700D58F1CC38280B71702401357BC
:1004900065003E9714438547B397A70093C7F7FFBE
:1004A000F58F1CC382804111B747004006C61387F1
:1004B00007C06301E50437370140630FE500938708
:1004C00007806312F5041305E04097000000E78001
:1004D00080FA1305E04009A81305C030970000001A
:1004E000E78060F91305C030B240410117030000F6
:1004F0006700E3F91305F04097000000E780A0F7DC
:100500001305F040D5B7B240410182802320050099
:10051000232205002324050023260500232A0500A5
:10052000232C050082801C410D6713070704D4416A
:100530007D8F9C41D58F9445D58FD445D58F9449D7
:10054000D58FD449D58F944DD58FD98F1CC15C4D93
:100550007D771307F77FF98F5CCD82801C4193E78D
:1005600007041CC182804CC582808547638CF500DE
:1005700089C58947638CF50082805C4193E7070851
:100580005CC182805C4193E70704DDBF5C4193E777
:100590000702FDB71C455841994663EDB600B70602
:1005A0000008938606288A05B69594418286898B31
:1005B0001377070899C3B337E0003E858280858BA7
:1005C00013770704C5BF93F7070413770702DDB756
:1005D00093F70702DDBFC18BCDBFA18BFDB793F7AA
:1005E0000710E5B708456D8D3335A00082804111B5
:1005F000B717004006C6138707C0630EE508636798
:10060000A70237070040930607406304D506938787
:1006100007806309F5066312E50A13050040970099
:100620000000E78040E51305004035A81387074028
:10063000630CE50637370140130707C0630DE5007B
:10064000631DF5061305404097000000E780A0E217
:100650001305404009A81305B03097000000E7805B
:1006600080E11305B030B24041011703000067007C
:1006700003E21305104097000000E780C0DF130578
:100680001040D5B71305204097000000E780A0DE9A
:1006900013052040C9BF1305304097000000E780D4
:1006A00080DD13053040C1B71305504097000000AE
:1006B000E78060DC130550407DB7B2404101828085
:1006C000C167FD1723200500231205001CC5231652
:1006D000050023070500828083D7050003D7450066
:1006E0009376F5BF1CD5B7370140938707C0418B80
:1006F000630AF500FD779387F73FE98F37060040DF
:100700006390C7061C4193F7F7F81CC183D72500F7
:10071000104193F70706D18F1CC11C415D8F18C192
:100720009C455CD5B71700406387F6021C4193F7E0
:10073000F7CF1CC183D7C500184193F70730D98F75
:100740001CC1B7370140138707C06316E50003C714
:10075000E50023A8E7C25C4993E717005CC98280E3
:100760001C41BD9B55BF1C4193E717001CC18280F3
:100770005C45DD8D4CC582805C4508496D8D09C5A1
:1007800033F5B7003335A000828093C5F5FF0CC95F
:100790008280B71702409843B706FFE0B10613679F
:1007A000170098C3D843758FD8C39843B706F7FE90
:1007B000FD16758F98C39843B706FCFFFD16758F1D
:1007C00098C3D843B70601DFFD16758FD8C323A69B
:1007D00007029843B706F7EAFD16758F98C33707E7
:1007E000FF0098C794434167D98E94C39307F7FFDE
:1007F0003717024014431396E60063440600FD17C2
:10080000F5FBB717024098439316E70063C3060051
:1008100001A0D843B706C4DFFD16D8C3D843D8C358
:10082000D84313670740D8C3D843758FD8C3D8437C
:10083000B7061D20558FD8C3D857BD76758FD8D72A
:10084000D857B706000113671700D8D79843558FBC
:1008500098C3B7170240984393166700E3DD06FE7E
:10086000D843719BD8C3D84313672700D8C3371721
:1008700002405C43A18BF5DF82807971B7050008E7
:1008800022D47D462A849385C5290A8506D69700F9
:100890000000E780007179468A85094597000000CD
:1008A000E7808071A285094597000000E780E0019C
:1008B000B705000805469385C52C0945970000003B
:1008C000E780806F01A079714ECEAE89B705000830
:1008D00009469385C52B22D426D24AD052CC56CA7B
:1008E00006D62A89714497000000E780E06C3D4AF3
:1008F000A54AF154B3178A00B3F73701B3D787007D
:1009000093F7F70F63ECFA029387070393F7F70F58
:1009100005469305F1004A857114A307F10097007D
:100920000000E7806069E31794FCB25022549254AF
:100930000259F249624AD24A45618280938777031D
:10094000F1B7B70700D223800700A385070012057F
:10095000B71700D23E9563E3A700828023A007006B
:10096000C107D5BFB71700D285070A053E95854751
:100970002300F5008280370700D283470700060571
:10098000798993F7170E5D8D2300A7008280B70742
:1009900000D203C5070005813D898280411122C430
:1009A00026C206C62A84AE8497000000E78060FE57
:1009B0009147114763E3A7002A87371500D20A043D
:1009C0000D052295834705009376F70FA145B39750
:1009D000E70093F7F70F958DB394B400B3D7E740D2
:1009E000C58F93F7F70F2300F500B24022449244DD
:1009F00041018280011122CC2EC606CE2A849700A6
:100A00000000E78000F98D47814563E9A7023717A9
:100A100000D20A040D07229783470700B245A1467A
:100A20003385A6409205B3D7A74093F5F50FB3974A
:100A3000A700CD8F93F7F70F2300F700F240624431
:100A40002E8505618280F327503093F707FC93E7EA
:100A50003700739057308280B70500084111154662
:100A60009385052C054506C697000000E780C05415
:100A7000054597000000E78080E041119347F5FFAE
:100A800022C406C6139747012A8409E7970000008D
:100A9000E780C0FCB705000815469385852C054501
:100AA00097000000E7804051228597000000E78012
:100AB00000DD411106C697000000E780C0CD130598
:100AC000700597000000E78000E897000000E780CD
:100AD000C0F7B240410117F3FFFF67000377828040
:100AE00083C705000547AA972380E70083C7050051
:100AF000850793F7F70F2380F5003E95930740FA9B
:100B00002300F50083C7050085072380F500828058
:100B1000130706051377F70F83D605009307160012
:100B20003308C50093F7F70F93D886002300180108
:100B30000906AA971376F60F2380D7008905E31DCF
:100B4000E6FC828037450040411181451305058050
:100B500006C622C426C297000000E780E0A339C978
:100B6000B744004013840480894522859700000023
:100B7000E78080A775D93704002013048406034753
:100B8000040013850480930717002300F400B707BF
:100B900000209387C70FBA9783C50700970000000E
:100BA000E780A09C034704009307100563F4E70067
:100BB00023000400B240224492444101828041114A
:100BC00085453705004006C622C426C297000000AE
:100BD000E780C0BA8547631DF506854537050040A7
:100BE00097000000E780A0BAB7040020B7050020F6
:100BF000138485061385C40F93858506230004009E
:100C000097000000E78000EE03460400B7050008E7
:100C10001385C40F9385052D97000000E78080EFB2
:100C200023000400371401408545130504C09700D4
:100C30000000E780208213361500130504C022440B
:100C4000B24092448545410117F3FFFF6700E37FFF
:100C5000B240224492444101828079710D4506D60A
:100C600022D497F0FFFFE7804070014685451305C9
:100C7000700397F0FFFFE780C06F1305306097F0B7
:100C8000FFFFE780C07D1305006097F0FFFFE7805E
:100C9000007D1305E07097F0FFFFE780407C37147C
:100CA0000140130504C089660946914597F0FFFF8E
:100CB000E780606F130504C0A1660946914597F06F
:100CC000FFFFE780406E91660946E145130504C0C9
:100CD00097F0FFFFE780206D374400401305048044
:100CE00097F0FFFFE780607C480097000000E780F6
:100CF00020828D474C003ECC130504809307800270
:100D00003ECE02C202C402C602C802CA9700000058
:100D1000E780A0811305048097000000E7804084ED
:100D200013050480814597000000E7804084B2509D
:100D300022544561828001111305007006CE97F0A0
:100D4000FFFFE780C0713705004097000000E78093
:100D5000408A0A8597000000E780C0969307603BB1
:100D60003EC089679387F7708A85370500403EC487
:100D70002312010023160100230701009700000041
:100D8000E780C09585453705004097000000E78063
:100D9000609E3705004097000000E780009D0D45EC
:100DA00097F0FFFFE780605C014685451305F00280
:100DB00097F0FFFFE780E05BF24005618280000072
:100DC0005D7106C012C216C41AC61EC82ACA2ECC2D
:100DD00032CE36D03AD23ED442D646D872DA76DC1B
:100DE0007ADEFEC0F322103496C0F322003096C2A1
:100DF000F322407C96C4732520348A859700000036
:100E0000E780E0C7864273901234964273900230B6
:100E1000A6427390427C82401242A2423243C243B5
:100E20005245E245724682561257A2573258C2586E
:100E3000525EE25E725F864F616173002030000097
:100E4000000000005D7106C012C216C41AC61EC89A
:100E50002ACA2ECC32CE36D03AD23ED442D646D84A
:100E600072DA76DC7ADEFEC073D0E87E7350F97EEB
:100E700073D0B97EF390D07E73700430B642739015
:100E8000427CA64273901234964273902234824080
:100E90001242A2423243C2435245E2457246825652
:100EA0001257A2573258C258525EE25E725F864FA6
:100EB000616173002030AA85814601460145170310
:100EC000000067008314411122C406C69707000082
:100ED0009387671C2A8491C7814597000000E780AB
:100EE000801B970700009387A72B88431C5591C34D
:100EF0008297228597000000E7806098411197074C
:100F000000009387272A22C41704000013048429B1
:100F10001D8C26C206C60984BE8411E4B240224458
:100F20009244410182807D1493172400A6979C432C
:100F30008297E5B74111970700009387A72622C43F
:100F400017040000130404261D8C26C24AC006C6DE
:100F5000098481443E896396840297070000938741
:100F60006724170400001304E4231D8C09848144C2
:100F70003E89639F8400B240224492440249410169
:100F8000828093972400CA979C4385048297E1B797
:100F900093972400CA979C4385048297D9BF2A83DC
:100FA00009CA83830500230073007D1605038505A8
:100FB0006DFA828097F7FF179387C70AB2862E864D
:100FC000AA8588431703000067008300411122C4EB
:100FD0002A842E85B285368697F7FF1723AC07162D
:100FE00006C697000000E7808017FD576319F500DB
:100FF00097F7FF17938707169C4391C31CC0B24015
:1010000022444101828097F7FF17938767069C432C
:101010002A8E8DE717F7FF171307C70597F7FF17F6
:1010200023A8E70417F5FFF71305C5FDBA8719C50F
:101030001C4117F5FF172323F50CBA87D8437D48C9
:101040007D556347E804630E0E0203A88708630119
:10105000080493182700C29823A0C800032308108F
:1010600005463316E6003363C3002320681023A02F
:10107000D80889466317DE0083264810558E232240
:10108000C810930617000A07D4C3BA978CC7014546
:101090008280797152CC56CA5AC85EC606D622D40E
:1010A00026D24AD04ECE62C42A8B2E8A97FAFF17D8
:1010B000938A0AFC854B03A40A0011C84440832983
:1010C00084081389F4FF8A04A294635E0900B25075
:1010D000225492540259F249624AD24A424BB24BCC
:1010E000224C45618280630E0A00639509007D19D8
:1010F000F114E1BF93172900CE9783A70708E3985F
:1011000047FF5840DC407D17631827032322240142
:10111000F9DF032C44006388090083A60910339784
:101120002B01F98E89EE8297584083A70A00E314B9
:1011300087F9E30EF4FA41B723A20400D1BF931656
:101140002900CE968C4283A64910758F01E75A85F7
:101150008297D9BF2E858297C1BF411106C622C48E
:1011600081460147814793080004730000002A84E8
:10117000635A05003304804097000000E780600157
:1011800000C17D542285B24022444101828097F7FC
:0A119000FF17938727ED8843828044
:04119C00000000202F
:1011A000000000000000000000000000000000003F
:1011B000000000000000000000000000000000002F
:1011C000000000000000000000000000000000001F
:1011D000000000000000000000000000000000000F
:1011E00000000000000000000000000000000000FF
:1011F00000000000000000000000000000000000EF
:081200000000002000000000C6
:040000050800015C92
:00000001FF
